:020000040000fa
:080000001001040000000000e3
:020000040000fa
:100200008a0a0400000000003223040000000000fd
:1002100058240400000000005428040000000000de
:10022000ef6e2100807922000001880000000000ac
:10023000050007000c000700042202000000000077
:100240000040da000000fe004440a9000009200040
:100250000000e0000300320000002000a001880040
:100260004440a80000000600009422000100200085
:100270001600370062004000e080480091018800cd
:100280009001ba0062004000e080480091018800bf
:100290009002ba0062004000e08048000002eb00db
:1002a0006028e10005003a008301e90007003300ff
:1002b000038009000059eb00040037006128e100c9
:1002c000010032000082eb00050007009101880068
:1002d0001001ba000200e000e6ff3a00000005004d
:1002e000910188008002780062004000e0804800b0
:1002f0003559ba008301e900080032002559ba00d7
:100300008301e900050032000400e000f4ff320040
:1003100015d9ba008301e900f1ff3a000000060098
:10032000000278008001780001003700b1597800a0
:1003300002004200808f5100fcff3a000400780068
:10034000000006000a00fa00000f7800110798006c
:100350002207980033079800440798001e00780091
:10036000200e88001e009000300e88003e00900095
:10037000400e88004e009000500e88002e00900025
:10038000000e88000080fa00000006000600fa0057
:10039000000f780011079800424798004e409000e7
:1003a0006140600061406000614060006141600048
:1003b000a11c200091407800e0cfb30000c0600095
:1003c00002407000cae1b7001e0078000000400043
:1003d00080007800601d20000080e900008040005f
:1003e0009e009000010878000080fa0000000600de
:1003f0000600fa00000f7800120798002307980003
:100400000000eb00300888000000eb005008880076
:100410001e009000600888001e009000ae00900052
:100420004008de0001002000700888001e007800ef
:10043000800888001061a8000080fa000000060013
:100440000200fa00000f780084e0a9001e00780086
:100450006740600067406000674060006740600080
:10046000004040000040400000404000004140008b
:100470007109200091407800f0c8b30000c060000e
:100480000240700097e0b7009e007800688060002e
:100490004300de006140600000404000004040003a
:1004a000004040000040400000404000004040004c
:1004b000804040008cc0bf000074a100014070006b
:1004c0008ce0b7000080fa00000006000200fa008d
:1004d000000f780086c0a9001e0078006740600009
:1004e000674060006740600067416000f1092000dc
:1004f0009140780080cfb30000c0600002407000df
:100500009fe0b7009e007800688060004300de0036
:1005100061406000614060000040400000404000d9
:1005200000404000004040000040400000414000ca
:10053000e108200091407800f0cbb30000c06000db
:10054000024070008ee0b7000080fa000000060054
:100550000600fa00000f78001207980023079800a1
:100560000000eb00a00888000000eb00c008880035
:100570001e009000d00888001e009000ae00900081
:100580004008de0001002000e00888001e0078001e
:10059000f00888001e61a8000080fa000000060034
:1005a0001600fa003007980041079800520798009b
:1005b0006307980074079800050f9800160f9800bd
:1005c000270f98009e0890005e00900051040700dd
:1005d000100798001e0090000000e0004f0032005d
:1005e0001e009000c0089000010f78001e009000cf
:1005f000c00890005e0090000000400000804000b5
:100600008080e9001e009000710898005e02900052
:10061000ae0990007e019000ce0090001e00900078
:10062000c50307006e019000be0090001e00780018
:100630003b060700800078001e009000010878004b
:100640000e0890000000e000030032000e08900049
:100650009e00900001087800b206070020a08000ec
:100660000000e80020a0880000a780000000e00053
:1006700007003a001e00900000a7880020a080001c
:10068000e10f50000c003a00eb0307000a003700ae
:1006900050a080000000e00007003a0000a78000a2
:1006a000b00890007e009000808f500002003e0055
:1006b0009e00900001a7880090a080000000e80044
:1006c00090a088001e009000b008900040a080001c
:1006d000808f5000030036001e009000300890000c
:1006e00040a088001e0090000081e8001e009000dd
:1006f000300890006a00b900800078006041210055
:1007000000804000820078000c0e070010002000de
:10071000200798008e060700020037000080eb00db
:10072000200798002e009000e10f500009003a00c9
:1007300050a080000000e0000600320000a780000a
:10074000b00890007e009000808f500001003100c2
:10075000ef0e07002e0090000080fa000000060057
:100760000c00fa0040079800510798000000eb00c9
:10077000100798008001070030a08000000f78006b
:100780004e009000900078005e00900000804000d5
:10079000300798004e009000100078009e0f500027
:1007a0000b0036004e009000900078003e00900054
:1007b000808f5000100036003e0090009e0f5000c9
:1007c0000d00360010002000100798000a003700c6
:1007d0004e009000900078003e009000808f500006
:1007e00003003e003e0090009e0f500002003600c5
:1007f00010002000100798004e009000be009000ee
:10080000010878001e0090000000e00005003200a2
:1008100000a780000080e800160e07003e00900050
:10082000a40307005a010700200798002e0090003b
:100830000000e00001003a00b50e07000080fa0059
:10084000000006000600fa00200798000000eb00f8
:10085000000f78002e0090000000e0000c00320035
:100860004501070031a080002e009000008040006c
:100870001007980000a780000080e800fd0d070029
:100880001e0090008b03070041010700000f780055
:100890001e00e00001003a009d0e07000080fa00f3
:1008a000000006000e00fa0040079800510798006b
:1008b0000000eb00000f78005e009000e30f500096
:1008c000020036003000200050079800150607008f
:1008d0004e0090000000e00003003a0000a78000f6
:1008e0006007980002003700ce0090006107980072
:1008f0006e009000300798003e009000b008900015
:1009000021079800ae0090005e009000808f50009c
:1009100046003200de0090002e009000808f5000d4
:100920000c00360001a780003e009000810f5000af
:100930000e00320000a78000b00890005e0090001a
:10094000808f500009003e0010002000000f78004a
:100950000600370001a780003e009000810f500084
:1009600002003a0010002000000f78003e009000c6
:10097000b0089000110798003e009000de00900043
:10098000310898003e009000600090000000e000f8
:10099000040035005e009000e40010003e0090006e
:1009a000610098003e009000500190001e009000f1
:1009b0006a00b9008000780060412100008040009a
:1009c000800f510015003a003e0090000080e800c2
:1009d000a80d07003e009000b008900040a08000e5
:1009e000808f5000030036003e00900030089000d9
:1009f00040a088003e0090000081e8003e0090008a
:100a0000300890006a00b900800078006041210041
:100a10000080400082007800480d07001000200090
:100a20009e0f100001003a00390e0700c8050700ac
:100a30000080fa00000006000600fa001007980087
:100a4000b80507001e0090000000e00003003a0017
:100a500000a7800020079800020037009e00900049
:100a6000210798002e009000000f78001e80e800fb
:100a7000800d07001e007800200890000000e000b4
:100a8000030032009e0078006c804000790d070062
:100a90009e80e80000462100280d0700ac050700f5
:100aa00000a780009e0f10000e003a0050a08000aa
:100ab0000000e00002003200150e07000f003700b2
:100ac00001a3800020a08000808f500003003a0026
:100ad0000000eb0000a78800080037007b0107003a
:100ae0000600370050a080000000e0000300320044
:100af0008c05070027030700950507000080fa0012
:100b0000000006000600fa00200798000000eb0035
:100b1000100798002e009000000f78001e0078004b
:100b2000d000900000462100808f50000b003a005a
:100b30001e007800a008900060452100808f5000c2
:100b4000060032001e007800200890000000e0003f
:100b500002003a0010002000100798001e009000cc
:100b60000080fa00000006000400fa001007980058
:100b70001e009000000f78001e00e00023003200ed
:100b800000a780009e0f10002000320065050700be
:100b90001e007800dbff0700e10f50001a003a004a
:100ba0001e80e800330d07001e007800b00890009a
:100bb00040a08000808f5000030036001e007800a7
:100bc0003008900040a088001e81e8001e007800d8
:100bd000300890006a00b900800078006041210070
:100be0000080400082007800d40c07001e007800ce
:100bf000b008900000a7800030089000808f50005f
:100c000001003900c20d0700510507000080fa00fd
:100c1000000006000800fa00300798000000eb0012
:100c2000200798003e009000100798000000eb009d
:100c3000000f78001e009000b2ff0700e10f500087
:100c400025003a00a0a080000000e0001e003a004d
:100c50001e009000b008900000a7800030089000af
:100c6000808f5000020039001000200020079800fb
:100c70001e0090000080e800fe0c07001e0090009f
:100c8000b008900040a08000808f50000300360024
:100c90001e0090003008900040a088001e009000c8
:100ca0000081e8001e009000300890006a00b90042
:100cb00080007800604121000080400082007800c0
:100cc0009e0c0700040037001e009000ec0040005e
:100cd00060452100990c07002e0090000080fa006a
:100ce000000006000200fa008003eb000003eb00a6
:100cf0008002eb000002eb008001eb009206200076
:100d0000818f2a00a0a8200025fe0700000f780090
:100d1000100020009e0f10000a003a00110280000f
:100d20000002200000807000100288000000000017
:100d30001000200050a088000000eb0030a08800c8
:100d4000bc0407000080fa00000006000000fa0062
:100d50001102800000022000008070001002880054
:100d6000000000000000eb0050a08800d304070042
:100d70000080fa00000006000000fa00a0a0800039
:100d80000000e800a0a088000080fa000000060033
:100d90000400fa000000eb00000f7800e1040700f7
:100da000a0a080000000e900a0a08800a0a0800012
:100db0000000e0003f003a0020a080000000e000ba
:100dc0003c00320023003700e0a280003000900099
:100dd000100798001e0090006c004000a50c070052
:100de0001e0090000080e800a20c07001e0090008a
:100df000b008900040a08000808f500003003600b3
:100e00001e0090003008900040a088001e00900056
:100e10000081e8001e009000300890006a00b900d0
:100e2000800078006041210000804000820078004e
:100e3000420c07001e009000b008900000a7800040
:100e400030089000808f5000020039001000200010
:100e500070a08800b0a280000000e000daff3a0035
:100e600060a080000000e0000c00320008003700a5
:100e7000280007000000e0000200320010002000ff
:100e800070a0880060a080000000e90060a08800d9
:100e900060a080000000e000f5ff3a0070a0800034
:100ea000e10f500003003a0010002000000f78000e
:100eb000170d0700a60407001e0078000080fa0046
:100ec000000006000200fa009604070030a080002f
:100ed000000f78009e0407001e0078000080fa00d2
:100ee000000006000400fa000000eb00000f78008c
:100ef00030a08000100798001e0090000080fa00cb
:100f0000000006000000fa0020a080000080fa0027
:100f1000000006000a00fa000000eb00200798001d
:100f2000a0a080000000e0005d003a0030a080003a
:100f30000000e80030a0880030a080001007980072
:100f40001e0090000000e0000a003a0091a280001c
:100f5000010f7800a0a2800090a288001e007800f7
:100f6000a0a2880080a080000000e80080a0880087
:100f70000802070011a780001e009000810f50009a
:100f80003b0039000000370090a28000100078007c
:100f90000000e00003003a000080eb0010a788008a
:100fa0003300370090a280003000900030009000a5
:100fb000400798004e009000900090003107980084
:100fc0009e0090003e009000808f50000300310092
:100fd0003e00900010a78800250037004e009000ca
:100fe0000080e800230c07004e00900020089000cd
:100ff0000000e000030032004e0090006c00400052
:101000001c0c07004e009000b008900040a080002b
:10101000808f5000030036004e0090003008900092
:1010200040a088004e0090000081e8004e00900033
:10103000300890006a00b90080007800604121000b
:101040000080400082007800bc0b07004e0090003a
:10105000b008900000a7800030089000808f5000fa
:10106000c9ff39001000200020079800c6ff370094
:1010700000a78000300890006a00b9008000780066
:10108000604121000080400010007800e10f500016
:1010900006003600100020002007980003003700eb
:1010a00060a080000000e80060a0880070a08000c0
:1010b0000000e0000200320010002000200798002d
:1010c0002e0090000080fa00000006000200fa00e6
:1010d000a0a080000000e00003003200100020000b
:1010e00070a08800270037000000eb0070a0880087
:1010f0000300370040a080000000e90040a0880005
:1011000040a080006a00b9008000780060412100a2
:1011100000804000100078000000e000f5ff320081
:1011200040a080006a00b900800078006041210082
:10113000008f40001e00780010009000900090008a
:101140001e007800110098001e00780090009000aa
:101150001e01780064004100808f500005003a00b5
:101160001e00780010009000900090001e00780093
:10117000110098001e0078001000900030009000d0
:1011800000a788000080fa00000006000600fa00b0
:10119000100798002107980000a78000ec0040008d
:1011a0001e009000830b070000a780000080e8006d
:1011b000b00b07002e009000e10f400005003a0040
:1011c00000a780008080e800004621005b0b07003c
:1011d0000500370031a080002e009000008f4000f5
:1011e0001e007800330107000080fa0000000600ae
:1011f0000800fa00100798002107980032079800ad
:1012000002a78000ae00900000002800008070005f
:101210006001980000a78000ec0040001e009000d4
:10122000460b070000a780000080e800910b070034
:101230003e009000e10f400005003a0000a780004a
:101240008080e800004621003c0b070005003700c5
:1012500031a080003e009000008f40001e0078000a
:10126000140107000080fa00000006000600fa00e2
:10127000200798002e009000300090003000900071
:10128000100798001e0090006c004000790b0700ca
:10129000a0a080000000e00016003a001e009000b0
:1012a0000080e800730b07001e009000b00890005b
:1012b00040a08000808f5000030036001e00900088
:1012c0003008900040a088001e0090000081e800d7
:1012d0001e009000300890006a00b900800078007d
:1012e000604121000080400082007800130b07005d
:1012f000040037001e009000ec0040006045210013
:101300000e0b07001e009000b008900000a78000a0
:1013100030089000808f500005003600100020003b
:10132000000f78001000200070a088000200370035
:101330000000eb00000f78001e0078000080fa002b
:10134000000006000800fa00200798003107980006
:10135000be00900000002800808070002e009000e9
:10136000010878002e0090003000900010079800cf
:101370002e0090003f0b07001e0090000080e80048
:101380003c0b07001e009000b008900040a08000b9
:10139000808f5000030036001e009000300890003f
:1013a00040a088001e0090000081e8001e00900010
:1013b000300890006a00b900800078006041210088
:1013c0000080400082007800dc0a07001e009000c8
:1013d000b008900000a7800030089000808f500077
:1013e0000500360010002000000f780010002000db
:1013f00070a08800020037000000eb00000f7800aa
:101400001e0078000080fa00000006000200fa00ca
:10141000000f780081a080001e007800010878008d
:1014200031a080001e007800110098000080fa00b2
:10143000000006000800fa00200798003107980015
:101440003803070030a08000000f78003e009000b5
:1014500010007800e10f400003003a000000eb00ac
:1014600010079800220037002e00900090007800ae
:1014700080a08000808f5000070032002e00900076
:10148000100090009e0f500003003e00100020004e
:1014900010079800160037002e00900010009000f2
:1014a0009e0010003e00900010007800808f5000d9
:1014b0000d0031003e009000900078002e0090005a
:1014c000100090001e001000808050003e00900030
:1014d000010878002e009000ccff07000000eb0010
:1014e0001007980002003700100020001007980035
:1014f000170307001e0090000080fa00000006009d
:101500000000fa001000200070a088000080fa009f
:10151000000006000200fa00000f780062000700d9
:10152000b0a08000e10f500001003600780b0700ea
:10153000ef0b0700f9ff37000c00fa0010079800c6
:101540002107980032079800430798005407980035
:101550000000eb00000f7800100037001e0178003b
:101560009e0078002e00900000804000904078009f
:101570001e009000020040007a0040000148780000
:101580009e0078002e0090000080400010407800ff
:101590000004e000040032001e0fe80030002000cc
:1015a0009e0f1000edff36001e0090008040eb0003
:1015b000515898003e009000e30f500002003600a2
:1015c00030002000300798001e009000be00900000
:1015d000310898001e0090000080e800500a0700c3
:1015e0001e0090006c0040004d0a07001e00900095
:1015f0009e009000410098003e009000e400100022
:101600001e009000610098001e0090009e00900057
:10161000110898001e0190006000b80000119800a9
:10162000111198009e0090000000eb00a01098009f
:101630000080fa00000006000200fa000000eb0043
:10164000000f7800070037001e0078006a00b9001c
:10165000800078006041210000804000170a0700e8
:101660001e0fe800300020009e0f1000f6ff36002d
:10167000e0432100110a0700804421000f0a0700ff
:10168000604521000d0a0700004621000b0a0700f3
:10169000e043210090a2880080442100a0a288009d
:1016a0000080fa00000006000000fa000080fa0046
:1016b000000006000200fa00000f780000a780007a
:1016c0009e0078001100980030a080009e0f10004e
:1016d0000500310000a780008080e800a0a2800003
:1016e000340a07000900370000a780008080e80066
:1016f00090a280002f0a070010a780009e0f100004
:10170000020031001e00780010a788000080fa0057
:10171000000006000800fa00100798002107980052
:1017200060022000770a0700000f78001e00e0002a
:10173000150032002e0090000000e00005003a0085
:101740001e009000000040006e0a0700300798005d
:10175000020037002e00900030079800be00900075
:101760001e007800410898001e0078004008900094
:101770000000e00004003a001e0078008e0a070016
:101780000000eb00000f78001e0078000080fa00d7
:10179000000006000200fa0090a28000100078000d
:1017a0000000e00003003a000080eb0010a7880072
:1017b0000700370090a280003000900030009000b9
:1017c000000f78001e0078001000900010a788001d
:1017d0000080fa00000006000200fa0000a7800066
:1017e000e0009000010f780001a7800000a78000b2
:1017f0003008900064001000e00098001e0078009f
:101800000080fa00000006000a00fa003007980085
:10181000410798004302070000a780009010900045
:1018200000109000e00f5000e08f580018003a00c0
:1018300000a7800011002000211098004e009000a9
:101840000000e0001200320000a780000080e800e5
:10185000080a07004e009000e10f400005003a0022
:1018600000a780008080e80000462100b30907003f
:101870000600370030a08000ce009000010040003c
:10188000200798002e0090008aff0700a00a07009a
:101890002f0207002302070000a78000001190001c
:1018a00090119000028fbe001e00be00e00f50009d
:1018b000e08f58000f0032003e0090000000e00072
:1018c0000500320002a780006000b80000119800f7
:1018d000111198000700370000a780000011900048
:1018e0009011900061015100e081590002109800b0
:1018f0001310980001a780000000eb00a0109800d2
:10190000130207001e00be000080fa00000006005f
:101910001000fa002007980031079800420798004d
:10192000530798006407980075079800fd010700a9
:1019300000a7800020109000e20f5000230032002a
:1019400004a7800004119000941190002e009000d4
:10195000be0090000080ea008180ea000000610083
:1019600081806100001298001112980001a7800088
:1019700010002000a01098007e0090000000e00001
:101980001200320000a780000080e800b9090700bb
:101990007e009000e10f400005003a0000a78000a3
:1019a0008080e80000462100640907000600370037
:1019b00030a08000fe009000010040001007980059
:1019c0001e0090003bff0700510a0700e0010700de
:1019d000d40107006e0090000000e0000500320016
:1019e00000a7800090109000001090006e01900001
:1019f0000089be0000a7800020109000e10f500079
:101a000003003a000000eb00000f78000d003700e3
:101a100004a7800004119000941190004e009000e3
:101a2000de0090000080ea008180ea000000610092
:101a300081806100001298001112980010002000af
:101a4000000f780001a780000000eb00a0109800b4
:101a5000bf0107001e0078000080fa0000000600a9
:101a60001200fa00300798004207980053079800c8
:101a7000610798007407980010002000000f78009c
:101a80003e00900020079800a60107007e0090000d
:101a90000000e000050032002e0090009010900041
:101aa000001090007e0190000089be002e00900082
:101ab000a010900011079800ae00900020002000b8
:101ac000a01098006e019000020f98008e099000ff
:101ad000e28f5100190032000e089000e20f500012
:101ae00004003e008e089000e18f50000800320094
:101af0002c0037000e099000e30f5100180032004f
:101b00008e099000e48f51001b0032002500370041
:101b10002e00900000119000901190004e00900057
:101b2000de00900000007100818071002e019000a5
:101b300000119800111198001a0037002e00900033
:101b4000901090000010900061004000e08048007c
:101b50002e0190000011980011119800110037001b
:101b60002e0090004e019000de01900002109800bf
:101b7000131098000b0037001e009000e20f500079
:101b8000060032002e0090004e019000de01900011
:101b90000210980013109800020037000000eb00bc
:101ba000000f78001e009000e10f50001c003a006a
:101bb0002e0090000080e8002e0907002e00900003
:101bc000b008900040a08000808f500003003600d5
:101bd0002e0090003008900040a088002e00900059
:101be0000081e8002e009000300890006a00b900e3
:101bf0008000780060412100008040008200780071
:101c0000ce0807002e009000b008900000a78000ca
:101c100030089000808f500001003600bc0907009a
:101c20004b0107001e0078000080fa00000006004b
:101c30001400fa00400798005207980063079800c4
:101c400071079800040f98001000200010079800fa
:101c50004e009000300798000000eb00000f780065
:101c60003e009000a010900021079800be00900058
:101c700020002000a01098007e019000120f980014
:101c80009e099000e28f5100190032001e0890005a
:101c9000e20f500004003e009e089000e18f5000cb
:101ca000080032002c0037001e099000e30f51009d
:101cb000180032009e099000e48f51001b00320092
:101cc000250037003e009000001190009011900018
:101cd0005e009000ee0090000000710081807100b5
:101ce0003e01900000119800111198001a00370071
:101cf0003e009000901090000010900061004000a5
:101d0000e08048003e0190000011980011119800f9
:101d1000110037003e0090005e019000ee0190003f
:101d200002109800131098000b0037002e0090004e
:101d3000e20f5000060032003e0090005e0190006d
:101d4000ee01900002109800131098000200370076
:101d50000000eb00100798002e009000e10f5000eb
:101d600029003a00a0a080000000e00016003a0020
:101d70003e0090000080e800be0807003e00900092
:101d8000b008900040a08000808f50000300360013
:101d90003e0090003008900040a088003e00900077
:101da0000081e8003e009000300890006a00b90011
:101db00080007800604121000080400082007800af
:101dc0005e080700040037003e009000ec00400071
:101dd00060452100590807003e009000b0089000bf
:101de00000a7800030089000808f50000600360069
:101df0000e0890000000e000030032008e08900002
:101e000010002000800878001e0090000080fa007a
:101e1000000006000a00fa00300798004107980009
:101e20003e009000200798000000eb00000f7800b3
:101e30002e009000a010900011079800ae009000b6
:101e400020002000a01098002e009000901090001c
:101e50000010900061004000e08048002e019000da
:101e600000119800111198001e009000e10f500021
:101e700029003a00a0a080000000e00016003a000f
:101e80002e0090000080e8007a0807002e009000e5
:101e9000b008900040a08000808f50000300360002
:101ea0002e0090003008900040a088002e00900086
:101eb0000081e8002e009000300890006a00b90010
:101ec000800078006041210000804000820078009e
:101ed0001a080700040037002e009000ec004000b4
:101ee00060452100150807002e009000b008900002
:101ef00000a7800030089000808f50000600360058
:101f00004e0090000000e00003003200ce00900080
:101f100010002000800878000080fa000000060011
:101f20000a00fa002007980031079800420798003d
:101f30003e009000100798002e0090009e00900038
:101f4000010878002e0090000080e800200798002b
:101f5000ae0090000000eb00800878002e0090009a
:101f60000080e80020079800ae0090000000eb0021
:101f7000800878002e0090000080e800200798007c
:101f80004e009000800078002e009000010878003c
:101f90002e0090000080e800200798000000eb0071
:101fa000000f78000a0037001e007800e18f2a0039
:101fb00000004000e08078002e00900001087800ca
:101fc0002e0090000080e800200798001e0fe80017
:101fd000a00120009e0f1000f3ff360021028000b8
:101fe0002e009000010878002e0090000080e8008c
:101ff0002007980034c0bf008080fb002e009000b6
:10200000010878002e0090000080e800200798006a
:10201000ae0090000000eb00800878002e009000d9
:102020000080e800200798002e0090000080fa0051
:10203000000006000000fa002300070000a780004f
:10204000900778004f00780040a788003400f9001e
:102050004400f9004000f9003e00f9003c00f9009e
:102060003a00f9003800f9002c00f9002a00f900c4
:102070002800f9002600f9002400f9002200f900e8
:102080003200f9003600f9004f0778004f06be0015
:102090004f05be004f04be004f03be004f02be00fe
:1020a0004f01be004f00be004200f90000000600d4
:1020b000100020000080fa00000006000000fa0076
:1020c0000080fa00000006000400fa0050e620003c
:1020d00001002000008fbe000000eb0020088800f7
:1020e0000000eb00000888001e007800100888003f
:1020f0005109200091407800f0c8b30000c0600092
:102100000044a00095e0b7008460a9008c60a8009e
:102110000481a80004a1a90005e1a8000080fa003c
:10212000000006000000fa001102800000022000fa
:1021300000807000100288000000000040a78000ae
:102140000000e80040a788000080fa0000000600b8
:102150000000fa0040a780000000e90040a78800c6
:1021600040a780000000e00005003a001002800057
:10217000f1fd2f0001006000100288000000000047
:102180000080fa00000006003600f800809fbe00c4
:10219000829fbe00849fbe00869fbe003400f80070
:1021a00000c0b300a00188000000fa008460a9000c
:1021b00058fb07000000e00001003200540807004f
:1021c0000080fa003400f9004f03be004f02be0049
:1021d0004f01be004f00be003600f900004006006f
:1021e0000a00fa002007980031079800420798007b
:1021f000c0012000c3070700000f78001e00e000a8
:102200003a00320050a780000000e00003003a00ce
:102210001e00780050a78800070107003e009000cc
:10222000e10f500002003600100020003007980037
:102230009e0078000000eb00d00898001e00780097
:10224000be009000310898001e007800ce0090007b
:10225000410898001e007800ae0090000108780048
:102260001e80e8002e0707009e0078006c8040006a
:102270002b0707001e0078009e00780041009800a0
:102280001e0078009e007800110898003e00900023
:10229000e20010001e007800610098001e00780027
:1022a000b008900050a38000808f500003003600db
:1022b0001e0078003008900050a388001e81e800be
:1022c0001e007800300890006a00b9008000780095
:1022d0002047210000804000820078001707070097
:1022e0001000200010079800020037000080eb006b
:1022f000100798001e0090000080fa000000060001
:102300000600fa00100798002107980061a38000da
:102310001e009000008f400050a780000080e80061
:102320005407070050a780009e0078001100980015
:1023300060a380009e0f10000500310050a78000b0
:102340008080e800e0a480001a070700040037003e
:1023500050a780008080e800d0a480001507070007
:102360002e0090000000e0000400320050a7800022
:10237000ec0040002e0090000e0707000080fa00dd
:10238000000006000200fa0023003700110280005e
:102390000002200000807000100288000000000091
:1023a00020a5800030009000000f78009e0078008b
:1023b0006c8040002f07070011028000f0fd2f0005
:1023c0000080600010028800000000001e80e8000d
:1023d000280707001e007800b008900050a3800076
:1023e000808f5000030036001e00780030089000f7
:1023f00050a388001e81e8001e007800300890007d
:102400006a00b90080007800204721000080400069
:1024100082007800c9060700f0a480000000e000f8
:10242000daff3a000080fa00000006000400fa001b
:10243000a4fa070071a380000100500080a3880067
:102440004300370060a380000000e80060a388001c
:1024500080a380000000e90080a3880060a38000c2
:102460000000e00036003a00d0a48000000f7800a1
:10247000e0a48000d0a488001e007800e0a48800ba
:102480002f003700d0a48000300090003000900072
:10249000100798001e0090009000900060a380003c
:1024a000808f50002a003e001102800000022000b0
:1024b0000080700010028800000000001e009000e4
:1024c0000080e800eb0607001e0090002008900046
:1024d0000000e000030032001e0090006c0040008d
:1024e000e406070011028000f0fd2f00008060006c
:1024f00010028800000000001e009000b00890004c
:1025000050a38000808f5000030036001e00900012
:102510003008900050a388001e0090000081e80061
:102520001e009000300890006a00b900800078001a
:102530002047210000804000820078007f060700cd
:10254000d0a48000100078000000e000cdff3a0029
:1025500080a380000000e000baff3a0060a3800082
:1025600070a388000080fa00000006000200fa0054
:1025700084ff0700adff07000600370050a380006e
:102580000000e0002a00320050a380000000e900b3
:1025900050a3880050a380006a00b9008000780032
:1025a0002047210000804000100078000000e0007b
:1025b000f2ff320050a380006a00b900800078006a
:1025c00020472100008f40001e007800100090007e
:1025d000900090001e007800110098001e00780006
:1025e000900090001e01780064004100808f500030
:1025f00005003a001e007800100090009000900046
:102600001e007800110098001e0078001000900055
:102610003000900050a7880050a78000100178007b
:1026200050a78000c008900050a780000200010061
:102630000080fa00000006000200fa000000eb0033
:10264000000f7800070037001e0078006a00b9000c
:102650008000780020472100008040001706070016
:102660001e0fe800100020009e0f1000f6ff36003d
:102670006048210011060700004921000f060700ed
:10268000e04921000d06070060482100d0a4880021
:1026900000492100e0a488000080fa000000060044
:1026a0000600fa00200798002e00900030009000ed
:1026b00030009000100798001e0090006c00400051
:1026c0006c0607001e009000ec004000e04921006d
:1026d0001a0607001e009000b008900050a7800066
:1026e00030089000808f5000030039001000200057
:1026f000000f7800020037000000eb00000f7800a8
:102700001e0078000080fa00000006000200fa00b7
:10271000c00020007b060700000f78001e00e000cc
:10272000050032001e0078008000eb0001087800f0
:102730001e80e800e10507001e0078000080fa0016
:10274000000006001200fa00500798006107980088
:1027500072079800030f98005e0090002007980011
:102760000000eb00000f780083f907002e009000b6
:102770009000780041079800ee0090005e00900005
:10278000e2000700ce0090006e0090008080700094
:102790007e009000808060007e009000808f50005e
:1027a0000e003a00ce0090006e0090000080700095
:1027b000300798002e009000900078007e00900076
:1027c0000080ea00808060002e0090000108780000
:1027d0000000eb00000f9800100037000e0890007a
:1027e0000000e0000a003200fe00900000502000cf
:1027f000808070002e0090000080e8000e0990009c
:102800007bfa07000000eb00300798000300370058
:102810002e00900090007800310798005cf90700c6
:10282000100798000e0890000000e000240032001d
:102830001e0090000000e00001003a00b40607000e
:10284000e5fb0700300798003e0090004900de00dd
:102850000000a200610060000004e00014003200eb
:1028600030fe07002e00900090007800310798009d
:10287000be0090007e009000808060007e0090008e
:10288000808f500007003a002e00900090007800e2
:102890007e0090000080ea00808060002e009000a2
:1028a000010878002afe070010002000000f7800c1
:1028b0003e009000f10f20000100600030079800fa
:1028c0003e0090000080fa00000006001800fa00a8
:1028d00070079800010f9800120f9800230f9800be
:1028e000340f98007e009000600798000000eb0015
:1028f000400798000000eb00100798001ef9070041
:102900006e009000100f78002e0990008e08900045
:102910001e00780009010700300798003e00900073
:102920000000e0000f0032009e0078005107980080
:102930000000eb00300f98001e0890000000e0003f
:10294000250032006e009000900078000e08900084
:102950000080ea00808060006e009000010878002e
:102960001d0037003e0890000000e00003003a0020
:102970001e00780050079800170037001e089000ce
:102980000000e000040032004e0090000110200022
:1029900001007000400798002e0890000000e00041
:1029a000040032004e009000014020000100700041
:1029b000400798008e0890004e00900080807000c4
:1029c0006e0090000080e8003e09900008fa0700c1
:1029d0000000eb0050079800edf807002007980072
:1029e0003e0890000000e000270032002e0090001a
:1029f0000000e00001003a004506070076fb0700f2
:102a0000500798005e0090004900de000000a20020
:102a1000610060000004e00017003200c1fd070003
:102a20006e00900090007800510798002e099000e9
:102a30008e0890005e009000c00007000000e000db
:102a40000a0032001e0890000000e000070032007b
:102a50006e009000900078000e0890000080ea0060
:102a6000808060006e00900001087800b8fd0700cb
:102a70000000eb00100798005e009000f10f2000ae
:102a800001006000500798005e0090000080fa008e
:102a9000000006000800fa0020079800310798009f
:102aa0002e009000100798009efd07001e00900069
:102ab000100f78001e009000900078003e009000fb
:102ac0000080ea00808060001e009000010878000d
:102ad0009ffd07001e0078000080fa00000006003d
:102ae0000800fa00300798003e0090001007980098
:102af0000000eb00200798001e009000100f7800e7
:102b00001e0078000080fa00000006001600fa009f
:102b1000100f9800210f98000000eb00400798006c
:102b20001e089000100798000000eb00000f7800ce
:102b30001e0090000080e800500798005e009000a2
:102b400064004000600798008bf807005e0090006a
:102b5000b0009000010f98001e00900090007800d7
:102b60002e089000808070001e0090000108780000
:102b70003b0037000e08900090009000710798000d
:102b80000e08900090007800310798000000eb00dc
:102b9000000f7800be00900000f02f000080600061
:102ba00020079800be009000f00f20000080600019
:102bb000300798002e0090004a00de000000a200be
:102bc000610060000004e000090032001e00900077
:102bd000900078003e009000008060000000e0005f
:102be0000c00320010002000000f780009003700b0
:102bf0001e009000900078003e00900080806000f1
:102c00003e009000808f500002003a00100020002b
:102c1000000f78001e00e0000f0032002e00900030
:102c20004800de00610060000004e00004003200a3
:102c30004e009000be009000010070004007980018
:102c40001e0090009000780000202000808070001e
:102c50000e089000bbf907007e009000000f98005e
:102c60008e0890006e009000808f5000c1ff3a00e7
:102c70001e009000900078004e0090000080ea0056
:102c8000808060001e0090000108780040f8070076
:102c90001e009000100078000080fa00000006007e
:102ca0000600fa00200798002e00900010079800f8
:102cb0001e009000008fe8002ff807000400370086
:102cc0001e00780030009000012020009df90700d0
:102cd0001e007800100078000000e000f8ff3a00c5
:102ce0001e0090003405070029f807000080fa0054
:102cf000000006000600fa00000f78001207980096
:102d0000230798009e0090001e0078007fff0700b8
:102d10000080fa00000006000600fa00000f7800ac
:102d200012079800230798009e0090001e0078006c
:102d300058ff07000080fa00000006000800fa00b3
:102d40001007980021079800320798000000eb0058
:102d5000000f78003e0090000000e00008003a00fc
:102d60001e009000ae009000010060000000e00036
:102d70000b00320010002000000f78000800370020
:102d80009e0090002e009000808060002e00900039
:102d9000808f500002003a0010002000000f7800e1
:102da0001e0078000080fa00000006000600fa000d
:102db00010079800210798001e009000000f78006f
:102dc000d8fc07001e007800100178001e00780073
:102dd000f00890001e007800001090000088b900f4
:102de000800041001e007800110098009e007800cd
:102df0000000eb00e00898001e00780090007800ca
:102e00001e007800210098001e0078001001780054
:102e10001e007800700890008000e9001e00780015
:102e2000001090000088b900800041001e0078006a
:102e3000310098009e0078000080eb009010980010
:102e40009e0078000080eb00a01098002e009000fb
:102e50000000e0000b003a001e00780040009000e7
:102e60000000e0000d0032009e0078006880400005
:102e7000fef80700e10f500008003a0024050700a3
:102e8000060037009e007800688040000b040700b1
:102e90009e0078007280400008040700acfc070028
:102ea000100020000080fa00000006000e00fa006a
:102eb0004007980051079800424f98000000eb002f
:102ec000100798005e0090000000e00003003a0048
:102ed0000000eb002007980005003700ce009000ae
:102ee0005e0090000088b9000000e800200798000c
:102ef0002e0090006002b00082040700000f7800ee
:102f00001e00e000180032001e0078003007980014
:102f10005e0090000000e00004003a00be00900057
:102f20003e00900001087800040037006002200095
:102f30009e0040003e009000010878003e00900096
:102f4000ce009000710898003e009000de009000d6
:102f500001109800110020003e00900093ff070030
:102f60003e009000100798001e0090000080fa00bc
:102f7000000006001400fa0050079800610798004e
:102f800072079800030f98000000eb0020079800dc
:102f90005e009000000f78000000370061fc070021
:102fa0001e007800e00890001e0078007008900075
:102fb000808f5000030039000e089000e20f50008f
:102fc00018003a000e099000ee0090001e007800f4
:102fd000b1010700100798001e007800100890004b
:102fe0000000e000070032009e0078007280400080
:102ff0009ef80700e10f500006003a00c4040700e5
:10300000040037001e0090000000e00001003200c4
:10301000bf0407004efc070012002000120f9800aa
:103020003d0037007e0090000000e00004003a0000
:1030300047fc07000000eb00100f98003600370037
:103040002e0090000000e00004003a0066004700f7
:10305000eef8070010002000200798003cfc070055
:1030600045f707002ffc07001e00780010109000a5
:10307000e10f400003003a009e0078000000eb00e2
:10308000901098001e00780020109000e10f400082
:1030900003003a009e0078000000eb00a0109800aa
:1030a0002bfc0700ee00470066004700e1f8070030
:1030b0000000e00013003a001e0078003d02070007
:1030c0000000e0000b003200fe0090001e017800be
:1030d000680041002df807001e007800e10107009c
:1030e0002bf707000000e000acff3a00880407005f
:1030f000aaff37001e007800da01070024f7070056
:10310000a6ff37001e007800d601070020f7070051
:103110000000eb00100f98001e0890000080fa00dd
:10312000000006000e00fa003007980041079800e2
:1031300052079800630798003e009000000f780047
:103140000000eb00100798001e007800e0089000d7
:103150001e00780070089000808f50000300390036
:103160006e009000e20f500020003a006e019000c7
:10317000ce0090001e007800470107001e00780076
:1031800020109000e10f400010003a001e0078006f
:10319000100890000000e000110032009e0078004e
:1031a0007280400031f807000000e0000c0032009f
:1031b0005e0090000000e00009003200de00900098
:1031c0001000200080087800050037001e007800fd
:1031d000201090008000e8001e0078002110980068
:1031e0001000200020079800020037000000eb00cc
:1031f000200798002e0090000080fa0000000600d2
:103200000a00fa0030079800410798003e0090003d
:10321000000f78000000eb00100798001e007800f7
:10322000e00890001e00780070089000808f500029
:10323000210031001e007800600890008000e80046
:103240001e007800610898001e0078002010900091
:10325000e10f400010003a001e00780010089000b6
:103260000000e000110032009e00780072804000f3
:10327000fef707000000e0000c0032004e00900056
:103280000000e00009003200ce0090001000200095
:1032900080087800050037001e007800201090009c
:1032a0008000e8001e007800211098001000200027
:1032b00020079800020037000000eb00200798006c
:1032c0002e0090000080fa00000006001400fa00b2
:1032d000500798006107980072079800030f980044
:1032e0000000eb00200798005e009000000f7800bf
:1032f000000037008bfb07001e007800600890007c
:103300000000e0002a0032001e007800b0009000ab
:1033100011079800ee0090001e00780031010700b0
:103320000e0890000000e00010003a001e00780037
:10333000600890008000e9001e0078006108980095
:103340001e007800400090000000e00014003200f1
:103350001e01780068004100c4f70700e10f50002b
:103360000f003a00ea0307000d0037001e00780046
:103370009e009000310098001e0078001008900018
:103380000000e000060032001e01780072004100db
:10339000b6f707000000e00001003200dc03070080
:1033a0006bfb070010002000100f98003d00370055
:1033b0007e0090000000e00004003a0064fb07007b
:1033c0008000eb00110f9800360037002e009000af
:1033d0000000e00004003a00660047000bf8070018
:1033e000100020002007980059fb070062f6070034
:1033f0004cfb07001e00780010109000e10f400009
:1034000003003a009e0078000000eb009010980046
:103410001e00780020109000e10f400003003a00e9
:103420009e0078000000eb00a010980048fb070009
:10343000ee00470066004700fef707000000e000ce
:1034400013003a001e0078003c0107000000e00075
:103450000b003200fe0090001e0178007200410057
:103460004af707001e007800fe00070048f6070034
:103470000000e0009fff3a00a50307009dff370012
:103480001e007800f700070041f6070099ff37009b
:103490001e007800f30007003df607000000eb0077
:1034a000100f98001e0890000080fa00000006002f
:1034b0000c00fa0030079800410798005207980066
:1034c0003e009000000f78000000eb00100798000d
:1034d0001e007800600890000000e0002400320028
:1034e000ce0090001e007800be0007001e0078008d
:1034f000600890008000e9001e00780061089800d4
:103500001e00780010109000e10f400010003a00fb
:103510001e007800400090000000e0001100320022
:103520009e0078006880400050f707000000e0002f
:103530000c0032005e0090000000e0000900320044
:10354000de009000100020008008780005003700a1
:103550001e007800101090008000e8001e00780027
:10356000111098001000200020079800020037007a
:103570000000eb00200798002e0090000080fa0069
:10358000000006000c00fa00400798005107980060
:103590004e009000000f78000000eb00200798001c
:1035a0001e007800600890000000e0000c0032006f
:1035b0001e007800b000900011079800de00900017
:1035c0001e007800870007001e0078009e00900013
:1035d00031009800100020003007980002003700ea
:1035e0000000eb00300798003e0090000080fa00d9
:1035f000000006000400fa0010079800c9fa07004e
:103600001e009000e0089000010f7800d0fa07003b
:103610001e0078000080fa00000006000600fa0094
:10362000200798002e009000000f7800bdfa0700d8
:103630001e007800f00890001e00780060089000de
:103640000080500010079800c1fa07001e0090008b
:103650000080fa00000006000400fa00100798003d
:103660001e009000e0089000010f78001e00780016
:103670000080fa00000006000400fa00100798001d
:103680001e009000000f78001e007800ca0207009c
:103690000080fa00000006000800fa0010079800f9
:1036a00021079800320798000000eb00000f780017
:1036b0001e009000001090000000e0004100320069
:1036c0003e0090000000e00018003a001e0090004c
:1036d000001190001e00900020009000ae009000ad
:1036e0000ff307001e009000a00090001e00900045
:1036f00000109000808040001e0090002100980083
:103700001e009000a00090001e009000100090008d
:10371000808f50002b0039001e0090009000780030
:103720001e00900021009800260037001e00900027
:10373000001190001e00900030009000ae0090003c
:10374000f7f207001e009000b00090001e009000ed
:1037500000109000808050001e0090003100980002
:103760001e009000b00090001e0090001000780035
:10377000808f5000070031001e00900090009000e4
:103780001e00900000109000808050001e009000ed
:10379000310098003e009000e20f500009003a000e
:1037a0001e009000600890000000e000050032005c
:1037b0001e009000600890008000e9001e0090004c
:1037c000610898001e009000600890008000e800ea
:1037d0001e009000610898001e0078000080fa002a
:1037e000000006000400fa00000f7800110798009e
:1037f0001e007800001090000000e000170032006a
:103800001e007800b00090001e00780000109000ac
:10381000808040001e007800310098001e00780073
:10382000b00090001e00780010009000808f5000c3
:10383000040039001e007800900078001e00780017
:10384000310098001e007800001190001e007800e2
:10385000b00090001e009000b1f207000080fa0056
:10386000000006000200fa00000f78002dfa0700a1
:103870000f0037001e007800100890000000e000e4
:103880000f0032009e0078007280400077f607003b
:103890000000e0000100320019f707001e00780068
:1038a000201090008000e9001e0078002110980090
:1038b0001e007800201090000000e000edff3c00aa
:1038c0009e0078000080eb00a010980020fa07000e
:1038d00014fa07000f0037001e0078004000900027
:1038e0000000e0000f0032009e0078006880400079
:1038f0005ef607000000e0000100320000f707005c
:103900001e007800101090008000e9001e00780072
:10391000111098001e007800101090000000e000c8
:10392000edff3c009e0078000080eb0090109800b6
:1039300007fa07000080fa00000006000400fa0001
:1039400010079800f7f907001e009000600890002b
:103950000000e00003003a0010002000000f780093
:10396000020037000000eb00000f7800f8f90700b4
:103970001e0078000080fa00000006000400fa0033
:10398000100798001e009000600890000000e00002
:1039900003003a0010002000000f780002003700fa
:1039a0000000eb00000f78001e0078000080fa0095
:1039b000000006000400fa0010079800d9f907007b
:1039c0001e009000e00890001e009000700890001b
:1039d000808f500003003a0010002000000f780094
:1039e000020037000000eb00000f7800d8f9070054
:1039f0001e0078000080fa00000006000400fa00b3
:103a0000100798001e009000e00890001e00900033
:103a100070089000808f500003003a0010002000d2
:103a2000000f7800020037000000eb00000f780064
:103a30001e0078000080fa00000006000c00fa006a
:103a40002007980031079800420798002e00900048
:103a5000000f78001102800000022000008070003a
:103a600010028800000000001e007800d1ff07004f
:103a70000000e000170032004e0090000000e0005f
:103a80000c0032001e007800e80040004e0090005c
:103a90001bfa070011028000f0fd2f00008060007b
:103aa0001002880000000000c1ff2f00510798009d
:103ab0003300370010028000f1fd2f00010060008c
:103ac00010028800000000000000eb005007980082
:103ad0002b00370011028000f0fd2f0000806000f5
:103ae0001002880000000000110280000002200087
:103af0000080700010028800000000001e007800a6
:103b0000e00890001e00780070089000808f500040
:103b1000120031000001eb00be0090001e00780092
:103b2000ddfe070010002000100798001e0078003e
:103b3000100890000000e0000a0032009e007800ab
:103b400072804000d6fa07000000e0000500320055
:103b5000b0ff2f0010079800020037000000eb00b4
:103b60001007980010028000f1fd2f000100600096
:103b700010028800000000001e009000500798000e
:103b80005e0090000080fa00000006000c00fa00c1
:103b90002007980031079800420798002e009000f7
:103ba000000f7800110280000002200000807000e9
:103bb00010028800000000001e00780060089000dd
:103bc0000000e00017003a004e0090000000e00006
:103bd0000c0032001e007800f20040004e00900001
:103be000c7f9070011028000f0fd2f00008060007f
:103bf0001002880000000000c1ff2f00510798004c
:103c00004900370010028000f1fd2f000100600024
:103c100010028800000000000000eb005007980030
:103c20004100370011028000f0fd2f00008060008d
:103c30001002880000000000110280000002200035
:103c40000080700010028800000000001e00780054
:103c5000600890000000e0002a0032001e0078009a
:103c6000b00090001e00780000109000808040009e
:103c70001e007800310098001e007800b00090000f
:103c80001e00780010009000808f50000400390062
:103c90001e007800900078001e0078003100980027
:103ca0001e007800600890008000e9001e00780087
:103cb000610898001e007800001190001e00780036
:103cc000b00090003e00900095f107001000200029
:103cd000100798001e007800400090000000e000ef
:103ce0000a0032009e007800688040006cfa0700ed
:103cf0000000e00005003200b0ff2f001007980020
:103d0000020037000000eb0010079800100280004e
:103d1000f1fd2f000100600010028800000000008b
:103d20001e009000500798005e0090000080fa008e
:103d3000000006000a00fa0010079800210798000a
:103d4000320798001e009000000f78001e007800d7
:103d5000e00890001e00780070089000808f5000ee
:103d6000130031000001eb00ae0090001e0078004f
:103d700049fe07003e0090000000e0000c003a0001
:103d80001e007800100890000000e00008003200db
:103d90009e0078007280400041fa07000000e000b9
:103da0000300320010002000400798000200370096
:103db000be009000410798004e0090000080fa007d
:103dc000000006000a00fa0020079800310798005a
:103dd000420798002e009000000f78001e00780027
:103de000600890000000e0002f0032001e00780004
:103df000b00090001e00780000109000808040000d
:103e00001e007800310098001e007800b00090007d
:103e10001e00780010009000808f500004003900d0
:103e20001e007800900078001e0078003100980095
:103e30001e007800600890008000e9001e007800f5
:103e4000610898001e007800001190001e007800a4
:103e5000b00090003e00900031f107004e0090004d
:103e6000100078000000e0000c003a001e0078000e
:103e7000400090000000e000080032009e00780042
:103e80006880400006fa07000000e00003003200ee
:103e9000ce00900010002000800878001000200064
:103ea00010079800020037000000eb001007980090
:103eb0001e0090000080fa00000006000200fa00d8
:103ec000000f78009e007800648040008000780039
:103ed0001e007800110098009e0078000080eb0022
:103ee000a00098009e007800648040008000780068
:103ef0001e007800310098009e0078006480400029
:103f0000800078001e007800410098009e00780034
:103f10000000eb00800878000080fa000000060036
:103f20000200fa00000f78009e0078000000eb000d
:103f3000c00098000080fa00000006000600fa00a9
:103f400010079800210798001e0090009000900034
:103f5000010f78002e0090009e007800110098005c
:103f60001e007800a00090002e0090002100980014
:103f70001e00780020009000ae0090001100980014
:103f80001e007800ae009000210098002e009000e6
:103f90009e009000410098001e00900010007800e4
:103fa0008000e8001e009000010878000080fa0000
:103fb000000006000800fa0020079800310798006a
:103fc0003e009000100f78000080eb009e0f100064
:103fd00004003a002e009000c000900011079800e5
:103fe0000c0037002e00900064004000100798007d
:103ff000030037001e009000900090001107980009
:104000001e00900010009000100078009e0f5000dd
:10401000f8ff36001e009000900090003e009000d7
:10402000110098003e00900010009000be0090002b
:10403000210098003e0090009e0090002100980012
:104040001e009000be009000110098003e009000fd
:10405000ae009000410098002e0090001000780003
:104060008000e8002e009000010878000080fa002f
:10407000000006000400fa00100798001e009000df
:1040800040009000000f78001e009000900090000b
:104090001e00900020009000a00098001e009000dc
:1040a000a00090001e00900010009000900098006a
:1040b0001e007800900090001e009000808f50003d
:1040c00004003a001e009000a00090001e0078003e
:1040d000110098009e0090000000eb00c0009800c6
:1040e0001e007800100078008000e9001e007800b3
:1040f000010878001e007800100078000080fa00a7
:10410000000006000400fa00100798000000eb0011
:10411000000f78001e009000610060000004e000c5
:10412000050032009e009000e0ff2f00008060003c
:104130000080e800100798000ff30700104080008f
:104140000000e00005003a00608020008000780058
:10415000e0ff2f00008060001040880001408000d8
:104160001e00900080804000d0bf2000808f500053
:104170000d003e00014080001e0090008080400045
:1041800000408000808f5000070036001140800002
:1041900000408000008f4000014080001e00900021
:1041a0000080400000408800f9f207001e007800ff
:1041b0000080fa00000006000200fa00000f7800fc
:1041c0000080fa00000006000000fa000000eb008a
:1041d000004088000080fa00000006000000fa009d
:1041e00001408000e0bf2000010050000080fa0084
:1041f00000000600801f78003400f80000c0b30003
:10420000a00188000000fa008020a90042c7bf007a
:10421000684060000004e00001003200ffff37004a
:104220000080fa003400f9004f00780000400600da
:104230003400f800881f780008c0b300a801880087
:104240004f0478000000fa008060a900ffff3700eb
:104250003400f800881f780008c0b300a801880067
:104260004f0478000000fa008040a900ffff3700eb
:104270003400f800881f780008c0b300a801880047
:104280004f0478000000fa008080a900ffff37008b
:104290003400f800881f780008c0b300a801880027
:1042a0004f0478000000fa008020a900ffff3700cb
:1042b0003400f800881f780008c0b300a801880007
:1042c0004f0478000000fa008060a900ffff37006b
:1042d0003400f800881f780008c0b300a8018800e7
:1042e0004f0478000000fa008040a900ffff37006b
:1042f0003400f800881f780008c0b300a8018800c7
:104300004f0478000000fa008080a900ffff37000a
:104310004200f800801f7800000220001002880090
:10432000811f7800829fbe00849fbe00869fbe00d2
:10433000889fbe008a9fbe008c9fbe008e1f7800a3
:104340003600f8003200f8002200f8002400f800df
:104350002600f8002800f8002a00f8002c00f800d9
:104360003800f8003a00f8003c00f8003e00f80081
:104370004000f8004400f8003400f80040a7800036
:10438000801f780000a780000f08780066080200f0
:104390000000000000a78000900778004f00780020
:1043a00040a788003400f9004400f9004000f900fb
:1043b0003e00f9003c00f9003a00f9003800f9002d
:1043c0002c00f9002a00f9002800f9002600f90065
:1043d0002400f9002200f9003200f9003600f9004b
:1043e0004f0778004f06be004f05be004f04be00c9
:1043f0004f03be004f02be004f01be004f00be0083
:104400004200f900000006000000fa002700070043
:10441000bef8070060a7880060a780000000e000e9
:1044200003003a003600070000000000feff3700de
:104430008003eb000003eb008002eb00340020005f
:104440008001eb00220d200041932a00203322003e
:1044500053f007008003eb000003eb008002eb0049
:10446000340020008001eb00220d200081932a00ff
:10447000804522004af007008003eb000003eb00b8
:104480008002eb00440020008001eb00220d2000a0
:10449000c1932a004085220041f0070011f2070075
:1044a0001700070000000000feff37000000fa00c0
:1044b0000000eb0000168800c0ff2f0030168800b7
:1044c00050ff2f0060168800001020009016880012
:1044d0000000eb00c0168800f0fe2f00f0168800e8
:1044e0000000eb00201788000080fa0000000600a2
:1044f0000000fa001df807000080fa000000060026
:104500000000fa0010168000014020000100700039
:10451000201688000080fa00000006000000fa0063
:10452000211420009140780080cfb30000c06000cb
:1045300042e1b70042e1a800211420009140780038
:10454000f0c9b30000c0600042e1b70021142000b0
:104550009140780080cfb30000c060000004a0004c
:1045600042e1b7004109200091407800f0c8b30053
:1045700000c060000044a00094e0b7008420a900bf
:104580008c20a8000080fa0000000600809fbe007a
:10459000829fbe003400f80000c0b300a001880074
:1045a0000000fa00000a800020a68800a116800002
:1045b000001020000080600030a6880030a6800037
:1045c0000000e000030032000000eb00300888002b
:1045d0000f003700c1a5800023a6800001814000a4
:1045e000804a2100000041000308780081804000db
:1045f000804a2100008040001000780000a688005a
:10460000c0a580000000e80067006000c0a5880029
:104610008420a9000080fa003400f9004f01be0098
:104620004f00be00004006000000fa00a016800007
:10463000f1fe2f0001006000b0168800f2ff2f008d
:104640000300200050fa2f0069ef07008ce0a8005b
:10465000d0ff2f007aef0700b0ff07000080fa00bc
:10466000000006000c00fa0050079800c00320006c
:10467000300798000000eb00200798000000eb00d6
:1046800010079800e8ff07000ef2070040079800a7
:10469000680047001100200031f007002e00900054
:1046a0000000e80020079800c1a58000d0a5800088
:1046b000808f50003800320000a6800011a68000d4
:1046c000010050000000e00005003500100020004f
:1046d000e0a5880000a6800010a68800040037002e
:1046e0000000eb00e0a5880000a6800010a688006e
:1046f000e0a580000000e00011003a0001a6800063
:10470000f0182000808f50000d003c00e1a58000d3
:10471000f0a58000808f50000900320060a7800063
:1047200001022000f9f807000002200040a68800de
:10473000e0a58000f0a5880040a6800050a6880073
:10474000e0a58000e10f500011003a0001a68000b2
:10475000004b2000808f50000d003400e1a5800048
:10476000f0a58000808f50000900320060a7800013
:1047700001042000e5f807000004200040a688009e
:10478000e0a58000f0a5880040a6800050a6880023
:10479000c0a58000d0a588001e0090000000e000a9
:1047a00004003a00a01680000040a000b016880067
:1047b0000e0037001e009000e10f500005003a0087
:1047c000a0168000f1fe2f0001006000b0168800e6
:1047d000060037009e0090003e009000808f500041
:1047e000020034000080eb00100798001e009000cb
:1047f0000000e80010079800a3ff37003400f8001d
:10480000881f780008c0b300a80188004f04780012
:104810000000fa0084e0a9000080fa003400f900ea
:10482000004006000a00fa00b05d20004007980032
:104830000000eb003007980000002a0020079800d5
:1048400080ff20001007980020002000000f780053
:104850001e0278009e0190002e019000be00900084
:104860004e009000b7ee070060a78000f10f200017
:1048700088f80700823e200003002000d0f82f00b7
:1048800033ef07008ec0a800d0ff2f000fef070006
:10489000007d2000f0a688000000eb00e0a6880064
:1048a00010002000c0a688000080fa00000006006a
:1048b0001000fa00200798000000eb001007980095
:1048c000a0002000000f7800d6ff0700000037008e
:1048d000e0a68000d0a6880060a780001e027800b5
:1048e0008001eb0012002000f10f2000f7f7070015
:1048f00010079800101680004e00de006100600076
:104900000004e0000500320010168000f1ff2b00cb
:1049100001006000101688000400370010168000a7
:104920000100240001007000101688001e00900095
:1049300070079800fe009000f08f500032003200a7
:104940007e009000f00f50000a003e00fe00900034
:10495000e28f50004c0032007e009000e80f5000c3
:104960001f003200fe009000e18f50003000320046
:104970007800370000042000fe009000808f500077
:104980000900320000082000fe009000808f5000d7
:104990000c00320000022000fe009000808f5000ca
:1049a0004f0032006b003700007d2000f0a6880029
:1049b0000000eb00e0a6880010002000c0a68800e0
:1049c00064003700007d2000f0a688004000200031
:1049d000e0a6880010002000c0a688005d00370017
:1049e0000041eb0041b520001000200067ee0700f9
:1049f0001000200070a6880060a7800081002000c1
:104a000024f80700530037000041eb008000eb0062
:104a1000100020005dee07000000eb0070a688008b
:104a200060a78000010120001af807004900370044
:104a300060a780001100200016f80700e0a68000a3
:104a400060079800ee0090000100e00004003200d2
:104a50006e009000e20f5000060032003d0037006b
:104a6000007d2000f0a6880030002000e0a688002d
:104a700038003700007d2000f0a6880030002000bc
:104a8000e0a688003300370060a7800021002000e6
:104a900000f80700e1a68000510798005e00900032
:104aa0000000e00004003200de009000e38f5000c0
:104ab0000600320027003700007d2000f0a68800a5
:104ac00020002000e0a6880022003700007d2000a2
:104ad000f0a6880020002000e0a688001d00370016
:104ae00060a7800001022000eaf70700e0a680002e
:104af00040079800ce009000e28f50000c0032007a
:104b00004e009000e30f50000e003200ce009000e7
:104b10000100e000010032000e003700007d20009f
:104b2000f0a6880010002000e0a6880009003700e9
:104b3000007d2000f0a6880030002000e0a688005c
:104b400004003700007d2000f0a68800200020002f
:104b5000e0a68800e0a6800030079800be00900024
:104b6000e38f50001a0032003e009000e30f500027
:104b700007003e00be009000e18f500010003200a0
:104b80003e009000e10f50000f003e000a00370089
:104b9000be009000e58f5000110032003e009000f2
:104ba000e50f50000c003900be009000e68f500069
:104bb0000d00320046ff37000d00070044ff3700ac
:104bc0003300070042ff37005900070040ff37005d
:104bd0007f0007003eff3700a50007003cff3700bd
:104be000aa0007003aff3700ac00070038ff370083
:104bf0000000fa00d1a68000e0a68000808f50005f
:104c000001003200c1000700d602a900d6c2bf00d1
:104c10000004a200614060006140600061406000eb
:104c20006140600000414000612d2000914078000b
:104c3000d0cfb30000c0600002407000d6e2b700e1
:104c4000d662a900d6c2bf000080fb004300de0090
:104c50000004a200614060006140600061406000ab
:104c6000614060000040400000414000612d200094
:104c700091407800b0cfb30000c0600002407000e7
:104c8000d6e2b700ac0007000080fa000000060082
:104c90000000fa00d1a68000e0a68000808f5000be
:104ca0000100320099000700d602a800d6c2bf005a
:104cb0000004a2006140600061406000614060004b
:104cc0006140600000414000612d2000914078006b
:104cd000d0cfb30000c0600002407000d6e2b70041
:104ce000d662a800d6c2bf000080fb004300de00f1
:104cf0000004a2006140600061406000614060000b
:104d0000614060000040400000414000612d2000f3
:104d100091407800b0cfb30000c060000240700046
:104d2000d6e2b700840007000080fa000000060009
:104d30000000fa00d1a68000e0a68000808f50001d
:104d40000100320071000700d602a800d6c2bf00e1
:104d50000004a200614060006140600061406000aa
:104d60006140600000414000612d200091407800ca
:104d7000d0cfb30000c0600002407000d6e2b700a0
:104d8000d662a900d6c2bf000080fb004300de004f
:104d90000004a2006140600061406000614060006a
:104da000614060000040400000414000612d200053
:104db00091407800b0cfb30000c0600002407000a6
:104dc000d6e2b7005c0007000080fa000000060091
:104dd0000000fa00d1a68000e0a68000808f50007d
:104de0000100320049000700d602a900d6c2bf0068
:104df0000004a2006140600061406000614060000a
:104e00006140600000414000612d20009140780029
:104e1000d0cfb30000c0600002407000d6e2b700ff
:104e2000d662a800d6c2bf000080fb004300de00af
:104e30000004a200614060006140600061406000c9
:104e4000614060000040400000414000612d2000b2
:104e500091407800b0cfb30000c060000240700005
:104e6000d6e2b700340007000080fa000000060018
:104e70000000fa00c1e1a900dca2a900dc62a900df
:104e8000dc22a9000080fa00000006000000fa0001
:104e9000c1e1a8000080fa00000006000000fa004e
:104ea000d602a800d6c2bf00614060006140600029
:104eb00000414000612d200091407800d0cfb30028
:104ec00000c0600002407000d6e2b700d662a800c1
:104ed000d6c2bf000080fb004300de0061406000de
:104ee000614060000040400000414000612d200012
:104ef00091407800b0cfb30000c060000240700065
:104f0000d6e2b7000080fa00000006000000fa00b8
:104f10000041eb008000eb00300020001bed07009b
:104f20000041eb008000eb002000200017ed07009f
:104f30000080fa00000006000000fa00e0a68000f1
:104f40000000e00014003a00f1a6800070a22000ea
:104f5000808f500010003e0090a68000e10f5000ae
:104f60000d003a000000eb0090a68800f0a680003b
:104f70000000e800f0a68800f1a680000041eb00e8
:104f80003000200001ed0700f1a680000041eb0099
:104f900020002000fdec0700e0a68000e10f50009b
:104fa00016003a00f1a6800070a22000808f500009
:104fb00012003e0090a68000e10f50000f003a0062
:104fc0000000eb0090a68800f0a680000000e8003a
:104fd000f0a688000041eb008000eb0030002000cc
:104fe000eaec0700f0a68000e11520008080400078
:104ff0000041eb0020002000e4ec0700e0a6800068
:10500000e20f500003003200e0a68000e30f5000e2
:1050100014003a00f1a6800010b22000808f5000ea
:1050200010003e0090a68000e10f50000d003a00f5
:105030000000eb0090a68800f0a680000000e800c9
:10504000f0a68800f1a680000041eb0030002000af
:10505000ceec0700f1a680000041eb00200020000c
:10506000caec07000080fa0000000600801f7800ec
:105070003400f80000c0b300a00188000000fa006e
:1050800086c0a9001000200090a688000080fa00c9
:105090003400f9004f007800004006000000fa00dc
:1050a0000080fa00000006000c00fa00500798008b
:1050b0000001200030079800000820002007980019
:1050c0000000eb00100798000000eb00000f7800d4
:1050d000f2ff0700000037007aef07004007980052
:1050e00068004700110020009ded07001e009000a1
:1050f0000000e800100798001e0fe800101680005e
:105100004900de00610060000004a2000004e0002d
:105110000a003a00a00f20009e0f10000700340084
:1051200011168000f0df2f0000806000201688003c
:105130000000eb00000f78000f0037001016800011
:105140004900de000000a200610060000004e000f1
:1051500009003200a00f20009e0f1000060034004e
:1051600011168000002020000080700020168800aa
:105170000000eb00000f78003e009000f00f5000a0
:105180000e003a009e009000f07c2000808f5000be
:105190000a00360060a78000010420005bf60700cb
:1051a000000420002007980060a7800081002000f4
:1051b00056f6070080002000300798001016800087
:1051c0000000e00005003d0010168000f1ff270000
:1051d0000100600020168800bfff37001016800015
:1051e000010028000100700020168800baff370077
:020000040000fa
:10000800a8290000fa20000018210000282100007b
:1000180038210000a8290000a8290000a82900000c
:10002800a8290000c6220000a8290000c41000006a
:10003800a8290000a8290000a8290000fe23000024
:10004800a8290000a8290000a8290000a829000064
:10005800a8290000a8290000a8290000a829000054
:10006800a8290000a8290000a8290000a829000044
:10007800a8290000a829000036280000a8290000a7
:10008800a8290000a8290000a8290000a829000024
:10009800a8290000a8290000a8290000a829000014
:1000a800a8290000a8290000a8290000a829000004
:1000b800a8290000a8290000a8290000a8290000f4
:1000c800a8290000a8290000a8290000a8290000e4
:1000d800a8290000a8290000a8290000a8290000d4
:1000e800a8290000a8290000a8290000a8290000c4
:0800f800a8290000a82900005e
:020000040000fa
:10010800a8290000482100005821000068210000ab
:1001180078210000a8290000a8290000a8290000cb
:10012800a8290000c6220000a8290000c410000069
:10013800a8290000a8290000a8290000fe23000023
:10014800a8290000a8290000a8290000a829000063
:10015800a8290000a8290000a8290000a829000053
:10016800a8290000a8290000a8290000a829000043
:10017800a8290000a829000036280000a8290000a6
:10018800a8290000a8290000a8290000a829000023
:10019800a8290000a8290000a8290000a829000013
:1001a800a8290000a8290000a8290000a829000003
:1001b800a8290000a8290000a8290000a8290000f3
:1001c800a8290000a8290000a8290000a8290000e3
:1001d800a8290000a8290000a8290000a8290000d3
:1001e800a8290000a8290000a8290000a8290000c3
:0801f800a8290000a82900005d
:020000040000fa
:1051f000494400004c45000000000000111100006f
:1052000022220000333300004444000055550000c2
:105210006666000077770000888800009999000092
:10522000aaaa0000bbbb0000cccc0000dddd000062
:10523000eeee0000cecd0000acab0000020200009c
:10524000030300000404000005050000060600003a
:1052500007070000080800000a09000010100000fd
:105260001011000012120000434100004400000031
:105270004d4f000054000000535000005600000045
:020000040000fa
:10528000e014000004000000020000000000ff0025
:10529000ff00000004140000660000000000000091
:1052a000e81400000200000002000000ef0000000f
:1052b000ea140000020000000200000000000000ec
:1052c0006a1400003e00000000000000000800001a
:1052d000040c000000000000ec14000002000000bc
:1052e00000000000a81400002400000002000000dc
:1052f00000000000000000000000000000000000ae
:10530000000000000001000000000100000000009b
:105310000000010000000000ffff800000400000ce
:10532000e41400000400000000000000da14000093
:105330000600000002000000000000000000000065
:10534000cc1400000e00000000000000000000006f
:020000040000fa
:045350000000fe005b
:00000001FF
